:100000000C943C000C9459000C9459000C94590029
:100010000C948F000C9459000C9459000C945900C6
:100020000C9459000C9459000C9459000C945900EC
:100030000C94F7070C9459000C9459000C94590037
:100040000C94CA020C9459000C9459000C94590059
:100050000C9459004A0161015701BB0167016D0110
:1000600087019001AC011C083B08E9081F093A0907
:100070005B089108AD08BA0811241FBECFE5D8E08F
:10008000DEBFCDBF10E0A0E6B0E0E0E6FCE102C0DC
:1000900005900D92AA38B107D9F723E0AAE8B0E09D
:1000A00001C01D92A23AB207E1F70E94480B0C94DE
:1000B0002E0E0C9400001092EF021092F00210929B
:1000C000F1021092F20281E080938A008CE085BDFB
:1000D00089EF83BD89B7806889BF88B7806488BF8E
:1000E00080E090918A00891750F4E82FF0E0EE0F3D
:1000F000FF1FE557FF4F118210828F5FF2CF83E021
:1001000083BF7894089580918A0091E0980F90932E
:100110008A0090E0880F991F85579F4F08951F927E
:100120000F920FB60F9211242F933F938F939F93AB
:10013000AF93BF93EF93FF9380E090918A0089176C
:1001400070F4E82FF0E0EE0FFF1FE557FF4F20811E
:1001500031812F5F3F4F318320838F5FEECF89B78F
:10016000806889BF80918B0090918C0084369105C6
:10017000B9F410928C0010928B008091EF02909154
:10018000F002A091F102B091F2020196A11DB11D01
:100190008093EF029093F002A093F102B093F202E9
:1001A000FF91EF91BF91AF919F918F913F912F91CF
:1001B0000F900FBE0F901F901895282F98E027FFE3
:1001C00002C0D19801C0D19AD09A30E53A95F1F7A2
:1001D000D09830E53A95F1F7220F915081F7D198F8
:1001E000089528E080E0D09A90E59A95F1F790E0A4
:1001F000C99B04C0880F991F816001C0880FD098E7
:1002000090E59A95F1F7215071F708958AB3897FA7
:100210008ABB8BB3817F88608BBB1092F4021092F3
:10022000F5021092F6021092F7028DE393E090939C
:10023000FA028093F9020E94830090937E038093D8
:100240007D031092F802FC0111821082D29AE09193
:100250007D03F0917E038081918185309105E8F3E3
:10026000D298E0917D03F0917E0311821082FFCF3E
:100270001092F7020895CF93DF93E091F6028E2F4C
:1002800090E08930910508F076C0FC01E65DFF4FF3
:100290000C94B40BCB9B73C08091F702813009F0B2
:1002A0006EC0D998D29A82E08093F70252C0CB995F
:1002B00066C081E08093F60210923C0310923B03EB
:1002C0005EC08091F3020E94DD0084E042C0809114
:1002D000F4020E94DD0085E03CC0E0913B0381E038
:1002E0008E0F80933B03F0E0ED50FD4F80850E9420
:1002F000DD0090913B038091F402981340C0D99A9D
:10030000D1988091F30287FF23C086E022C00E942B
:10031000F100813408F081E08093F50287E019C094
:10032000C091F902D091FA0280913C0391E0980FBC
:1003300090933C03C80FD11D0E94F10088839091D7
:100340003C038091F50298131AC084E08093F70271
:1003500088E08093F60213C00E94F1008093F802B7
:10036000D2988091F702843011F483E001C085E0D7
:100370008093F70202C01092F7021092F602DF910A
:10038000CF9108958091F702843019F48091F5029D
:10039000089580E00895FF920F931F93CF93DF930A
:1003A00000D0CDB7DEB78A019FEF960F903418F0DA
:1003B000FF24FA941BC0F090F702FF2039F06A8303
:1003C00089830E943B0189816A81F5CF8093F30282
:1003D0006093F40210923B03462F50E0B8018BEF7C
:1003E00092E00E94E70D81E08093F7028F2D0F903D
:1003F0000F90DF91CF911F910F91FF900895CF93B0
:10040000DF931F92CDB7DEB78983AE014F5F5F4F99
:1004100061E084E00E94CB010F90DF91CF910895BD
:10042000CF93DF931F92CDB7DEB78983AE014F5FC5
:100430005F4F61E083E00E94CB010F90DF91CF918D
:100440000895E091A500F091A6008081918120910E
:10045000A3003091A4008217930701F1883691051B
:1004600011F411821082808191819093A400809375
:10047000A300282F2370422F50E0841B950BFA0114
:10048000E955FF4F608170E00E947E0B892B31F4AB
:1004900037982C5B27B986B1806D86B90895E82F0F
:1004A000F0E0E955FF4F608308954FB7F89490E06E
:1004B000DC01A555BF4F6C9320E030E0BC01E6E0C5
:1004C000660F771FEA95E1F7FB01E20FF31FEE0FCE
:1004D000FF1FE154FF4F118210822F5F3F4F2034E6
:1004E000310591F7FC01E554FF4F10825C9121E04A
:1004F00030E001C0220F5A95EAF72F73FC01E9544E
:10050000FF4F2083880F991FFC01E155FF4F118297
:1005100010824FBF08950F931F93CF93DF9307EA85
:1005200010E0C0E0DAE064E08C2F0E945502F80190
:10053000D1938F01CF5FC430B1F70E9483009093B5
:10054000A6008093A50084E487B98FE086B9E09186
:10055000A500F091A60011821082DF91CF911F912A
:100560000F9108956FB7F894282F30E0F901EE0F3E
:10057000FF1FE155FF4F40815181F901E555FF4FC4
:1005800090816FBF9A0102C0369527959A95E2F740
:10059000C90108951F920F920FB60F9211240F9365
:1005A0001F932F933F934F935F936F937F938F93FB
:1005B0009F93AF93BF93CF93DF93EF93FF93E7B1F5
:1005C000E370F0E0CF0185549F4FDC012C918F0147
:1005D00036E0000F111F3A95E1F7E801C20FD11D77
:1005E000CC0FDD1FC154DF4F48815981EF01CC0F83
:1005F000DD1FC155DF4F28813981241B350B39831D
:100600002883E954FF4F208144B155B1B801620FEE
:10061000711D9B01220F331F21543F4FD9011196A9
:100620005C934E932081D801A20FB11DAA0FBB1F6E
:10063000A154BF4F4D915C9128813981240F351F02
:1006400039832883DC012C912F5F2C932C912F73FD
:100650002C9380818F5F808380818F738083FF9153
:10066000EF91DF91CF91BF91AF919F918F917F914A
:100670006F915F914F913F912F911F910F910F902B
:100680000FBE0F901F90189581B3806381BB8EB50C
:1006900088618EBD8FB582608FBD8FB5806A8FBD3A
:1006A0000895CF92DF92EF92FF9201979093C2024A
:1006B0008093C1029B0140E050E060E074E284EF6F
:1006C00090E00E94920B2115310581E04807510509
:1006D00058F48EB5887F81608EBD3093C002209320
:1006E000BF0237BD26BD3BC069017A0163E0F694C5
:1006F000E794D794C7946A95D1F7C114D10481E0E7
:10070000E806F10420F48EB5887F826012C069018A
:100710007A0196E0F694E794D794C7949A95D1F726
:10072000C114D10481E0E806F10458F48EB5887F45
:1007300083608EBDD092C002C092BF02D7BCC6BC3F
:100740000EC08EB5887F84608EBDBB27A52F942FE9
:10075000832F9093C0028093BF0297BD86BDFF9008
:10076000EF90DF90CF9008951F93CF93DF93182FD2
:10077000EB01209799F12091C1023091C2026217DA
:10078000730751F4811104C0959A8FB58F7721C0FA
:10079000949A8FB58F7D1DC06091BF027091C00289
:1007A000CB01A0E0B0E07727662740E050E00E9450
:1007B000920BDE010E94BA0BAA27BB27111105C0BC
:1007C0009BBD8ABD8FB5806804C099BD88BD8FB5BB
:1007D00080628FBDDF91CF911F910895811102C07A
:1007E0009598D3CF9498D5CF8EB5887F83608EBDF2
:1007F00088E893E197BD86BD89EF90E09BBD8ABDF7
:1008000099BD88BD089570E067507F4F882319F027
:1008100079BD68BD08957BBD6ABD0895089580E0E7
:1008200090E00895CF93DF931F92CDB7DEB7898311
:10083000AE014F5F5F4F61E081E00E94CB010F90FE
:10084000DF91CF910895FC0101900020E9F76E2F10
:10085000681BAC0181E00C94CB01CF93DF93CDB743
:10086000DEB7C054D1090FB6F894DEBF0FBECDBFBE
:10087000382FFC018E2F831B90E02491A1E0B0E083
:10088000AC0FBD1FA80FB91F2C9331962111F2CFC9
:10089000CE0101960E942304C05CDF4F0FB6F8948E
:1008A000DEBF0FBECDBFDF91CF91089580E090E015
:1008B000089508954DE656E066E083E00E94AA0799
:1008C00041E956E067E887E80C94AA0760E480EF06
:1008D0000C948B02CF93DF939091960380917F03CA
:1008E00098130AC09091970380918003981709F498
:1008F0005CC0C0E0D0E034C0C0E0D0E0809196039E
:1009000090E0AE01440F551F042E02C095958795C7
:100910000A94E2F7837020917F0330E002C035959E
:1009200027954A95E2F72370821789F0813049F0C4
:1009300030F0823041F0833051F466E005C064E06D
:1009400003C060E001C063E08C2F0E9455028091DB
:10095000960380937F032196C430D10579F6C2CFE8
:100960008091970390E00C2E02C0959587950A948C
:10097000E2F78370823051F0833059F0813019F002
:1009800065E080E008C06AE081E005C064E182E0E3
:1009900002C062E383E00E944F022296C830D10574
:1009A000F9F68091970380938003DF91CF910895AA
:1009B0000F931F93CF93DF93C0E0D0E000918103AA
:1009C000109182038C2F0E94B2029E01220F331FCE
:1009D000F801E20FF31F928381832196C430D10581
:1009E00069F7DF91CF911F910F9108950C94210227
:1009F000E0918103F091820320B396B330E1939F9D
:100A0000C0011124922F9F70892B808380918703CE
:100A100086FF03C089B38F70818708958091870313
:100A200086FD0FC0809194039091C302891749F00D
:100A30002AB3982F92959F709823922B9ABB8093FC
:100A4000C30280918B0320E1829FC0011124909109
:100A50008A039F70892B85BB8091870381FD0AC023
:100A600092B380918A038071880F880F880F9F77D7
:100A7000892B82BB8091870382FD08C092B380914D
:100A80008A038071880F9F7B892B82BB089581B375
:100A9000806C81BB80E382BB85E38A95F1F700001F
:100AA000859B06C095988D9A809187038D7F06C09F
:100AB0008F988D9A9798809187038260809387039F
:100AC000849B06C094988C9A809187038B7F06C084
:100AD0008E988C9A96988091870384608093870380
:100AE0008091870386FF04C08AB3807F8ABB01C0E0
:100AF0001ABA80E487BB8FEF84BB8BB3807F8BBB3C
:100B000015BA12BA08954AEA56E062E082E00E94FD
:100B1000AA0741EC56E069E089E00E94AA0740EA92
:100B200056E061E081E00E94AA074BEC56E068E0E5
:100B300088E00E94AA0747EB56E067E087E00E9442
:100B4000AA0748ED56E065E885E80C94AA0780916D
:100B5000870386FD0FC0809194039091C30289178B
:100B600049F02AB3982F92959F709823922B9ABBA5
:100B70008093C302089560918D0370918E038091DC
:100B8000C6029091C7028617970759F42091C802B0
:100B90003091C90280918F039091900328173907F3
:100BA000E9F08091CC0280FF0FC081FD03C080E09E
:100BB0000E9403048091CC0282FD10C060918F03DB
:100BC00081E00E9403040AC080E00E94B4036091A7
:100BD0008F037091900381E00E94B40380918D0394
:100BE00090918E039093C7028093C60280918F03E9
:100BF000909190039093C9028093C80208950E9437
:100C0000440364EF71E08FEF93E00E945103E6EC40
:100C1000F2E08FEF9FE0918380839383828380E073
:100C200094E09093C5028093C402089544EF56E087
:100C300063E882E80E94AA0742EE56E061E880E895
:100C40000E94AA0747E157E064E884E80C94AA07E9
:100C5000909191038091CC028927E9F080FF1BC01D
:100C600090FF03C00E94F40312C060919203709140
:100C700093038091C4029091C5020E945103809118
:100C80009203909193039093CB028093CA02809138
:100C900091038093CC028091910380FD1DC06091EF
:100CA0009203709193038091CA029091CB028617B0
:100CB000970791F07093CB026093CA028091C402AF
:100CC0009091C5020E9451031092C7021092C60271
:100CD0001092C9021092C80208958823F9F0813059
:100CE00069F43091810320918203832F922F860F24
:100CF000911D860F911DFC0136970EC0823079F44C
:100D00003091810320918203832F922F860F911DB2
:100D1000860F911DFC013597418101C044E0842F6D
:100D20000895882351F0813019F44093960306C04A
:100D3000823021F44093970301C044E0842F08954A
:100D4000882329F0813021F440938A0301C043E0D5
:100D5000842F0895882341F0813039F4E091810394
:100D6000F0918203408101C043E0842F08958823DD
:100D700029F0813021F440938B0301C043E0842F9C
:100D80000895882329F0813021F440918C0301C01B
:100D900043E0842F0895882341F0813039F4E091B5
:100DA0008103F0918203418701C043E0842F0895BD
:100DB000882329F0813021F44093940301C043E05B
:100DC000842F0895882369F0813061F4E62FF0E0E4
:100DD000EE0FFF1FE657FD4F842F90E0948383832F
:100DE00001C043E0842F08958823F1F0813039F465
:100DF000842F90E09093D0028093CF0216C082306F
:100E0000A1F4E62FF0E0EE0FFF1FEA57FD4F842F0D
:100E100090E0982F88272091CF023091D002820F46
:100E2000931F9483838301C044E0842F0895882313
:100E3000F9F0813019F4409391031BC0823039F4EA
:100E4000842F90E09093CE028093CD0212C0833025
:100E500081F4842F90E0982F88272091CD02309143
:100E6000CE02820F931F909393038093920301C04D
:100E700045E0842F08958627682F62956827062EFF
:100E8000669566956025062E669560256770082E26
:100E9000892F669507946795902D86270694679508
:100EA000902586270895FF920F931F93CF93DF938A
:100EB000F62E8A018093EE025093E3024093E20201
:100EC0009A012C5F3F4F3093E5022093E402C82F34
:100ED000D0E061E070E0CE010E94D40BF801938372
:100EE000828361E070E0CE010E94D40BF80191830F
:100EF000808361E070E0CE010E94D40B9093ED02FC
:100F00008093EC0261E070E0CE010E94D40B9093DC
:100F1000EB028093EA028F2D90E064E070E001968E
:100F20000E94D40B9093E9028093E802BE9AE0916C
:100F3000E402F091E50210821092E6021092E702BC
:100F40001082DF91CF911F910F91FF90089580EC57
:100F50008DB90895A091E802B091E90290E0FD01F9
:100F600024E0929FE00DF11D112422813381232B77
:100F700011F09F5FF4CF8083618353834283089590
:100F8000B49B0FC08091E602E091E402F091E5028B
:100F9000893021F48091E702808301C01082109291
:100FA000E6020895CF93CFB7F894E091E402F09170
:100FB000E502808181110FC04091EE02E091E202D2
:100FC000F091E3026081718150E08091EA0290919A
:100FD000EB020E94E70DCFBFCF910895E091E402AC
:100FE000F091E50210821092E702089508951F9291
:100FF0000F920FB60F9211240F931F932F933F93CD
:101000004F935F936F937F938F939F93AF93BF9310
:10101000CF93DF93EF93FF93CFB7F894DFB1E091D5
:10102000E6020E2F10E00930110508F023C1F80187
:10103000ED5CFF4F0C94B40BE091E402F091E502FB
:1010400081E08083DA3A29F482E08093E602D5E5F4
:1010500012C1D03809F00EC12FEF3FEF3093E102FB
:101060002093E0023093DF022093DE021092DD0233
:101070001092DC02E1C0DF3FD1F4E091EA02F0918E
:10108000EB028091DC0291E0980F9093DC02E80F74
:10109000F11DD0816D2F8091E0029091E1020E94BC
:1010A0003B079093E1028093E00285E0C5C089E0B0
:1010B0008093E602DFC0E091EC02F091ED028091B6
:1010C000DD0291E0980F9093DD02E80FF11DD083CF
:1010D0006D2F8091DE029091DF020E943B0790937A
:1010E000DF028093DE02E091EA02F091EB02809150
:1010F000DC0211E0180F1093DC02E80FF11DD08123
:101100006D2F8091E0029091E1020E943B07909345
:10111000E1028093E0028091EE021813ACC086E0F9
:101120008BC0E091EC02F091ED028091DD0291E044
:10113000980F9093DD02E80FF11DD0836D2F809101
:10114000DE029091DF020E943B079093DF028093C2
:10115000DE02D091E00287E06FC09091E1022D2F76
:1011600030E03093DB022093DA0288E08093E602DD
:10117000D92F81C08D2F90E0982F88272091DA02F7
:101180003091DB02820F931F9093DB028093DA028F
:101190002091DE023091DF028217930791F4809153
:1011A000EC029091ED02E091E202F091E3022281E3
:1011B00033813093ED022093EC029383828383E0AA
:1011C00001C086E08093E70289E08093E602D0E8E0
:1011D00052C0D093D9021092D8024091E8025091A7
:1011E000E90290E0FA0184E0989FE00DF11D1124DE
:1011F0008081D817B8F081818D17A0F00280F3812B
:10120000E02DF093D702E093D602309789F081E089
:101210008093D8024D2F6D2F80E009958093D502E1
:1012200083E00AC022813381232B41F39F5FDACF11
:1012300085E08093E70289E08093E6021CC0E0919C
:10124000D602F091D7026091D9028091D80291E044
:10125000980F9093D8024D2F0995D82F9091D802CE
:101260008091D502981307C089E08093E60284E05C
:101270008093E702D0E0DFB9CFBFFF91EF91DF911C
:10128000CF91BF91AF919F918F917F916F915F911E
:101290004F913F912F911F910F910F900FBE0F9083
:1012A0001F901895882329F0813021F440939503ED
:1012B00001C043E0842F0895882329F0813021F470
:1012C0004093980301C043E0842F0895882331F0B0
:1012D000813031F0823031F48CE0089584E008955B
:1012E00085E0089580E00895882341F0813039F445
:1012F000E0918103F0918203448D01C044E0842F8A
:101300000895CF9342E559E066E886E80E94AA076F
:1013100046E659E069E889E80E94AA0744E759E0EF
:101320006AE88AE80E94AA074CE559E068E888E87C
:101330000E94AA07C0E080918603C817A8F4909184
:101340009C0380919D03E92FF82FEC0FF11DEC0F0A
:10135000F11D0190F081E02D0190F081E02D30979A
:1013600009F00995CF5FE7CFCF91089561E070E074
:1013700082E090E00E94D40B90939D0380939C03A5
:1013800010928603089540919C0330919D03209113
:10139000860361E0620F60938603E42FF32FE20F70
:1013A000F11DE20FF11D9183808370E0660F771FBE
:1013B00080919C0390919D030E941D0D90939D032D
:1013C00080939C030895E0918303F09184039385B7
:1013D00080919903981709F42EC090FF0CC081608A
:1013E000809399032FE088E10FB6F894A89581BD0A
:1013F0000FBE21BD0BC08E7F809399030FB6F8946A
:10140000A89581B5886181BD11BC0FBE94FF06C04F
:10141000809195038160809395030AC0A091810318
:10142000B09182035C968C915C978E7F5C968C93D6
:101430008385809399030895CF930E94E309E091F7
:101440008103F091820385E0828F8CE0838F80910D
:1014500099038295817090918703892B848FC0E0D6
:1014600080918603C817A8F490919C0380919D03F6
:10147000E92FF82FEC0FF11DEC0FF11D0190F08119
:10148000E02D0480F581E02D309709F00995CF5FBC
:10149000E7CFCF910C94D2071F93CF93DF9310E047
:1014A00080918603181718F5C12FD0E0CC0FDD1FEF
:1014B000E0919C03F0919D03EC0FFD1F0190F081E2
:1014C000E02D0084F185E02D309709F00995809199
:1014D0009C0390919D03C80FD91FE881F981068074
:1014E000F781E02D309709F009951F5FD9CFDF9183
:1014F000CF911F910895CF930E94830090939B03F7
:1015000080939A030E9483009093890380938803B9
:10151000E0918103F0918203948D80918703892B60
:10152000848F0E944C0A0E944C0AC0E0809186037E
:10153000C817A8F490919C0380919D03E92FF82F80
:10154000EC0FF11DEC0FF11D0190F081E02D0280F8
:10155000F381E02D309709F00995CF5FE7CFCF9168
:10156000089598E088E10FB6F894A89581BD0FBE64
:1015700091BDFFCFCF93E0918803F09189038081E3
:101580009181049760F080918503811108C00E94C9
:101590001C0AE0918803F091890311821082E09186
:1015A0009A03F0919B0380819181803D9740A1F443
:1015B000809199038F7E80939903A0918103B091CC
:1015C00082035C968C915C978E7F5C968C93808175
:1015D000918101969183808380918503843091F17C
:1015E00018F4833031F032C0853091F18630F9F053
:1015F0002DC080919903E0918303F091840384FFCF
:1016000008C08FE0AAE8B3E001900D928A95E1F757
:1016100003C08385809395030E94EE070E944C0AC5
:10162000E0919A03F0919B03118210820FC00E94F7
:10163000EE0781E00E94F6078091990380FF06C0C3
:101640000E94B10A0E94EE070E944C0AC0E01AC034
:1016500082E00E94F6070E94EE07F8CF90919C036B
:1016600080919D03E92FF82FEC0FF11DEC0FF11D78
:101670000190F081E02D0284F385E02D309709F090
:101680000995CF5F80918603C81740F3CF910895E5
:101690000E94B6098CE690E00E94C30980E690E0C3
:1016A0000E94C30988E790E00E94C3090E945B0082
:1016B0000E9483009093D4028093D3020E948300FF
:1016C0009093D2028093D10241E853E064E18DE12E
:1016D0000E9453070E9481090E947B0A0E94A7076B
:1016E00081B3806381BBE091D302F091D402118277
:1016F00010820E94C0070E94BA0AFBCFAA1BBB1B24
:1017000051E107C0AA1FBB1FA617B70710F0A61B01
:10171000B70B881F991F5A95A9F780959095BC0122
:10172000CD010895A1E21A2EAA1BBB1BFD010DC01D
:10173000AA1FBB1FEE1FFF1FA217B307E407F50781
:1017400020F0A21BB30BE40BF50B661F771F881F5D
:10175000991F1A9469F760957095809590959B01F3
:10176000AC01BD01CF010895EE0FFF1F0590F4916C
:10177000E02D09940E94C50BA59F900DB49F900D7C
:10178000A49F800D911D11240895A29FB001B39FC5
:10179000C001A39F700D811D1124911DB29F700D7A
:1017A000811D1124911D08950F931F93CF93DF93F3
:1017B000869F8001879F100D969F100D1124C801F0
:1017C0000E94F00BEC01009729F0A80160E070E0A6
:1017D0000E94F00DCE01DF91CF911F910F910895DE
:1017E000CF93DF938230910510F482E090E0E09196
:1017F000A003F091A10320E030E0C0E0D0E03097FA
:1018000011F14081518148175907C0F04817590715
:1018100061F482819381209719F09B838A832BC086
:101820009093A1038093A00326C02115310519F0E0
:101830004217530718F49A01BE01DF01EF0102803D
:10184000F381E02DDCCF2115310509F1281B390B7F
:101850002430310590F412968D919C911397611567
:10186000710521F0FB019383828304C09093A1034F
:101870008093A003FD01329644C0FD01E20FF31FE7
:1018800081939193225031092D933C933AC020913A
:101890009E0330919F03232B41F4209186003091C9
:1018A000870030939F0320939E0320918400309102
:1018B00085002115310541F42DB73EB740918800D0
:1018C00050918900241B350BE0919E03F0919F03FA
:1018D000E217F307A0F42E1B3F0B2817390778F007
:1018E000AC014E5F5F4F2417350748F04E0F5F1F66
:1018F00050939F0340939E038193919302C0E0E035
:10190000F0E0CF01DF91CF9108950F931F93CF9314
:10191000DF93009709F48CC0FC0132971382128286
:101920000091A0031091A1030115110581F42081FC
:101930003181820F931F20919E0330919F032817BE
:10194000390779F5F0939F03E0939E0371C0D801A6
:1019500040E050E0AE17BF0750F412962D913C9135
:101960001397AD012115310509F1D901F3CF9D017F
:10197000DA013383228360817181860F971F82177A
:10198000930769F4EC0128813981260F371F2E5FF8
:101990003F4F318320838A819B8193838283452BB0
:1019A00029F4F093A103E093A00342C01396FC93A3
:1019B000EE931297ED01499159919E01240F351F25
:1019C000E217F30771F480819181840F951F0296CD
:1019D00011969C938E938281938113969C938E9300
:1019E0001297E0E0F0E0D80112968D919C91139748
:1019F000009719F0F8018C01F6CF8D919C91980118
:101A00002E5F3F4F820F931F20919E0330919F03C3
:101A10002817390769F4309729F41092A10310921E
:101A2000A00302C01382128210939F0300939E03AF
:101A3000DF91CF911F910F910895A0E0B0E0E3E214
:101A4000FDE00C94FB0DEC01009721F4CB010E940A
:101A5000F00BB8C0FC01E60FF71F9C0122503109C2
:101A6000E217F30708F4ACC0D9010D911C9111974E
:101A700006171707B0F00530110508F49FC0C8011C
:101A800004978617970708F499C002501109061B9E
:101A9000170B019311936D937C93CF010E94850CDA
:101AA0008DC05B01A01AB10A4C01800E911EA0915D
:101AB000A003B091A10340E050E0E12CF12C10977D
:101AC00009F44AC0A815B905D1F56D907C9011971D
:101AD000630182E0C80ED11CCA14DB0480F1A301AB
:101AE0004A195B096A0182E0C80ED11C1296BC90AB
:101AF00012971396AC91B5E0CB16D10440F0B282A8
:101B0000A38351834083D9016D937C930AC00E5FF8
:101B10001F4FC301800F911FF90191838083EB2D2B
:101B2000FA2FE114F10431F0D7011396FC93EE93F0
:101B3000129744C0F093A103E093A0033FC08D919E
:101B40009C9111974817590708F4AC017D01129632
:101B50000D90BC91A02DB3CF80919E0390919F03D7
:101B600088159905E1F446175707C8F48091840059
:101B700090918500009741F48DB79EB74091880001
:101B800050918900841B950BE817F907C8F4F0936E
:101B90009F03E0939E03F901718360830FC0CB0123
:101BA0000E94F00B7C01009759F0A801BE010E9431
:101BB000E70DCE010E94850CC70104C0CE0102C012
:101BC00080E090E0CDB7DEB7EEE00C94170EFB019D
:101BD000DC0102C001900D9241505040D8F70895A9
:101BE000DC0101C06D9341505040E0F708952F9201
:101BF0003F924F925F926F927F928F929F92AF929D
:101C0000BF92CF92DF92EF92FF920F931F93CF93E9
:101C1000DF93CDB7DEB7CA1BDB0B0FB6F894DEBF80
:101C20000FBECDBF09942A88398848885F846E84A6
:101C30007D848C849B84AA84B984C884DF80EE80F0
:101C4000FD800C811B81AA81B981CE0FD11D0FB6F9
:101C5000F894DEBF0FBECDBFED010895F894FFCF1D
:101C60005A046604D80400006A04F6048305470594
:101C7000F8040E05A70500001606FF05BB050000C9
:0A1C8000280600000000A203200067
:00000001FF
